:100000000C9467000C948F000C948F000C9489045E
:100010000C9489040C9489040C948F000C948F0028
:100020000C948F000C948F000C948F000C94A20100
:100030000C948F000C948F000C948F000C948F0004
:100040000C941A060C948F000C948F000C948F0063
:100050000C948F000C948F000C948F000C948F00E4
:100060000C948F000C948F00446973743A20000044
:100070000000080002010000030407000000000067
:100080000000000102040810204080010204081052
:1000900020010204081020040404040404040402DF
:1000A0000202020202030303030303000000002311
:1000B000002600290000000000250028002B000079
:1000C000000000240027002A00000401160111246A
:1000D0001FBECFEFD8E0DEBFCDBF11E0A0E0B1E0A2
:1000E000E2E5F4E102C005900D92A433B107D9F71F
:1000F00024E0A4E3B1E001C01D92A43CB207E1F703
:1001000010E0CCECD0E004C02297FE010E94C109AF
:10011000CA3CD107C9F70E948D080C941C0A0C94A4
:1001200000000F931F93CF93DF9300D0CDB7DEB7BE
:100130008C01CB0169837A830E94F209AC01698149
:100140007A81C8010E94FB0921E030E0892B11F07F
:1001500020E030E0C9010F900F90DF91CF911F9107
:100160000F910895CF93DF93CDB7DEB7C054D10977
:100170000FB6F894DEBF0FBECDBF20E430E0AE0175
:100180004F5F5F4F6AE089E391E00E94100821E031
:1001900030E02C0F3D1F820F931FFC01108268E698
:1001A00070E0C9010E949100892B39F36CE270E084
:1001B000CE0101960E94090A0097F9F2FC01108213
:1001C000CE0107960E94D409C05CDF4F0FB6F894A9
:1001D000DEBF0FBECDBFDF91CF91089540E052EC5E
:1001E00061E070E089E391E00E948C0540E855E20F
:1001F00060E070E088E591E00E948C0569E070E0C5
:1002000086E391E00C94F80220E043E062E088E5A8
:1002100091E00E945C0520E045E064E089E391E024
:100220000E945C0586E391E00C945E0289E391E014
:100230000E94030588E591E00C940305CF93DF93BA
:1002400088E591E00E949603892B09F078C010920E
:10025000500410924F0410923501109234016091B5
:10026000340170913501653B71050CF043C086E3A4
:1002700091E00E9431036FE070E080E090E00E9426
:1002800093060E94B200C0914F04D0915004C53B28
:10029000D10504F5BC01882777FD8095982F0E9431
:1002A000CB0860934B0470934C0480934D0490935F
:1002B0004E04FE01EE0FFF1FEE0FFF1FE958FE4F29
:1002C00060837183828393832196D0935004C0937B
:1002D0004F0406C06AE071E088E591E00E94D00713
:1002E000809134019091350101969093350180936E
:1002F0003401B5CF61E088E591E00E94B7036EE17B
:1003000070E080E090E00E949306C7E7D1E0699139
:100310007991899199910E949D0888E591E00E94C8
:10032000B70384E0CB34D80791F760E070E086E350
:1003300091E00E9431031092350110923401DF9157
:10034000CF9108951F920F920FB60F9211242F9301
:100350003F934F935F936F937F938F939F93AF934D
:10036000BF93EF93FF938091520487FF05C01092D3
:100370008500109284001AC020915204332727FD73
:1003800030958091510490E0281739077CF48091D2
:100390005204992787FD9095FC01EE0FFF1FE80F8F
:1003A000F91FED5AFB4F808186FD15C080915204E4
:1003B0008F5F8093520420915204332727FD30959C
:1003C0008091510490E028173907BCF480915204C1
:1003D0008C305CF112C080915204992787FD909572
:1003E000FC01EE0FFF1FE80FF91FED5AFB4F808154
:1003F00060E08F730E945807D9CF8091840090915C
:100400008500049680349C4918F480E49CE905C07A
:100410008091840090918500049690938900809348
:1004200088008FEF8093520438C02091840030916F
:10043000850080915204992787FD9095FC01EE0F6D
:10044000FF1FE80FF91FED5AFB4F81819281820F48
:10045000931F90938900809388008091520499277C
:1004600087FD9095FC01EE0FFF1FE80FF91FED5A75
:10047000FB4F808186FF11C080915204992787FD30
:100480009095FC01EE0FFF1FE80FF91FED5AFB4F8F
:10049000808161E08F730E945807FF91EF91BF91B7
:1004A000AF919F918F917F916F915F914F913F910C
:1004B0002F910F900FBE0F901F901895209151040F
:1004C0002C30A0F431E0320F30935104FC01208332
:1004D000822F90E0FC01EE0FFF1FE80FF91FED5A8D
:1004E000FB4F88EB9BE09283818308952FEFFC0103
:1004F00020830895DF92EF92FF920F931F93CF9383
:10050000DF93EC01D62E7A01890188818C3008F0C6
:1005100066C061E08D2D0E941F078881A82FB0E082
:10052000FD01EE0FFF1FEA0FFB1FED5AFB4F2D2DB4
:100530002F739081907C922B908360E272E06E1911
:100540007F0977FF02C06D5F7F4F75956795759541
:100550006795698340E659E0401B510B57FF02C085
:100560004D5F5F4F55954795559547954A836CE08C
:100570000E943F099CE0899FB001112420E030E0F7
:10058000A901460F571FFA01EE0FFF1FE40FF51FD9
:10059000ED5AFB4F908196FD16C02F5F3F4F2C30D8
:1005A000310571F781110FC01092800082E08093B5
:1005B00081001092850010928400B19A80916F00A2
:1005C000826080936F00888190E0FC01EE0FFF1F36
:1005D000E80FF91FED5AFB4F80818064808388818A
:1005E000DF91CF911F910F91FF90EF90DF900895D1
:1005F00020E639E040E252E00C947A02FC0180816E
:100600008C3070F5918128E830E0291B310997FD85
:100610003395220F331F220F331F621773077CF0AD
:10062000928128E532E0291B310997FD3395220F8D
:10063000331F220F331F621773070CF49B012250E4
:100640003109220F331F4FB7F89490E0FC01EE0FF1
:10065000FF1FE80FF91FED5AFB4F328321834FBF75
:1006600008954F925F926F927F92AF92BF92CF9216
:10067000DF92EF92FF920F931F93CF93DF93EC01E2
:10068000603282E078070CF040C077FD06C0653B21
:1006900071052CF064EB70E002C060E070E08981CD
:1006A00028E830E0281B310987FD3395220F331FDE
:1006B000220F331F5901CC24B7FCC094DC2C8827AF
:1006C00077FD8095982F2A8148E552E0421B510919
:1006D00027FD5395440F551F440F551F2A016624CB
:1006E00057FC6094762C7F926F925F924F9214EB3E
:1006F000E12EF12C00E010E020E030E0A9010E94A2
:1007000045080F900F900F900F90CE01DF91CF9181
:100710001F910F91FF90EF90DF90CF90BF90AF901F
:100720007F906F905F904F900C94FE022091B904DF
:100730003091BA0428173907B9F490917704809161
:100740007804981789F0E0917704F0E0E758FB4FC0
:1007500080812091770430E02F5F3F4F2F73332744
:100760002093770490E008958FEF9FEF08951F93F3
:10077000CF93DF93DC015C968D919C915D97009700
:1007800049F481E090E013969C938E93129780E059
:1007900090E03BC05196ED91FC91529750962C9170
:1007A0005097322F30951FB75E964C915E9741FB64
:1007B000772770F941FD6095F8944081772311F017
:1007C000422B01C043234083EC012197F1F748E01D
:1007D000508160FF02C0522B01C053235083EC01B3
:1007E0002197F1F76695415099F78081772311F0B1
:1007F000832301C0822B80831FBF5C968D919C91C7
:100800005D970197F1F781E090E0DF91CF911F9123
:1008100008952091B9043091BA042817390781F45A
:100820009091770480917804981751F0E0917704C3
:10083000F0E0E758FB4F8081992787FD9095089558
:100840008FEF9FEF08952091B9043091BA042817D3
:10085000390771F4809178042091770490E0805CEE
:100860009F4F821B910960E470E00E944B0908953C
:1008700080E090E008952091B9043091BA042817DF
:10088000390739F48FB7F8941092780410927704EE
:100890008FBF0895E091B904F091BA04E817F90701
:1008A00069F4A389B4899C918589809589238C9367
:1008B0001092BA041092B90481E0089580E008957E
:1008C000CF93DF93EC018A8D9B8D892BF1F0809182
:1008D000B9049091BA048C179D07B9F0009711F0F4
:1008E0000E944A048E8D8E7F8E8F10927804109213
:1008F0007704D093BA04C093B904EB89FC89808152
:100900009D89892B808381E001C080E0DF91CF91B8
:1009100008951F920F920FB60F9211242F933F93B9
:100920004F935F936F937F938F939F93AF93BF93F7
:10093000EF93FF93E091B904F091BA04309709F472
:1009400051C0868DA685B785958581FF04C08C91A1
:10095000892329F447C08C91892309F043C0A389D6
:10096000B4899C918589809589238C938689978900
:100970000197F1F7208D318DA685B785758558E0F3
:1009800040E0C9010197F1F7842F90E09595879594
:10099000482F6C91672309F04068515091F7868D7C
:1009A00081FD40958091780490E001968F7399279E
:1009B00020917704281749F0A0917804B0E0A75857
:1009C000BB4F4C938093780403C0868D8160868FE3
:1009D000828D938D0197F1F7A389B4898C919589C4
:1009E000892B8C93FF91EF91BF91AF919F918F9144
:1009F0007F916F915F914F913F912F910F900FBE1B
:100A00000F901F90189527E131E0FC01318320837E
:100A10000C944A041F93CF93DF93EC01162F6E8D35
:100A20006695617081E06827812F0E94580761E018
:100A3000812F0E941F07812F90E0FC01ED57FF4F8F
:100A4000E491E88BFC01E956FF4FE491F0E0EE0FF2
:100A5000FF1FEB54FF4F859194919A8B898BDF9107
:100A6000CF911F9108951F93CF93DF93EC01162F21
:100A700060E0812F0E941F078E8D81FD04C061E020
:100A8000812F0E9458071C87812F90E0FC01ED57B1
:100A9000FF4FE491ED87FC01E956FF4FE491F0E050
:100AA000EE0FFF1FE555FF4F859194919F878E872D
:100AB000DF91CF911F910895FF920F931F93CF93D2
:100AC000DF93EC01F62E522F1B821A8208EE13E000
:100AD00020E030E00C831D832E833F8387E191E08B
:100AE000998388831F8A1E8A198E188E1B8E1A8EF0
:100AF0001D8E1C8E8E8D8E7F50FB81F98E8F642F04
:100B0000CE010E940A056F2DCE01DF91CF911F917A
:100B10000F91FF900C943305CF93DF93EC019A0172
:100B2000AB011B8E1A8E198E188E1F8A1E8A60E0EA
:100B300079E08DE390E00E948109C90124303105FC
:100B400020F0B9016350710902C061E070E07D8F4F
:100B50006C8FEC85E63108F068C0B9017695679531
:100B60006431710518F06351710902C061E070E0F1
:100B70007F8B6E8B069718F0C901059702C081E044
:100B800090E0998F888FC901880F991F820F931F5A
:100B900096958795969587958D30910510F00C97D1
:100BA00002C081E090E09B8F8A8F20916800E8303E
:100BB00050F091E0EE3008F490E081E001C0880F41
:100BC0009A95EAF701C084E0822B809368002C8517
:100BD000283038F02E3040F0263148F48CE690E092
:100BE00008C08DE690E005C08BE690E002C080E092
:100BF00090E09C8B8B8B283030F481E001C0880F13
:100C00002A95EAF70DC0822F90E02E3010F4089755
:100C100001C00E9791E001C0990F8A95EAF7892FDC
:100C20008D8B8C8D9D8D0197F1F7CE01DF91CF914A
:100C30000C9460041F920F920FB60F9211242F9301
:100C40003F938F939F93AF93BF938091BC049091F8
:100C5000BD04A091BE04B091BF043091BB0423E059
:100C6000230F2D3720F40196A11DB11D05C026E8E4
:100C7000230F0296A11DB11D2093BB048093BC04D9
:100C80009093BD04A093BE04B093BF048091C004B0
:100C90009091C104A091C204B091C3040196A11D1A
:100CA000B11D8093C0049093C104A093C204B0937B
:100CB000C304BF91AF919F918F913F912F910F905E
:100CC0000FBE0F901F9018952FB7F8946091BC0439
:100CD0007091BD048091BE049091BF042FBF089510
:100CE0003FB7F8948091C0049091C104A091C204D0
:100CF000B091C30426B5A89B05C02F3F19F00196FB
:100D0000A11DB11D3FBF6627782F892F9A2F620F33
:100D1000711D811D911D42E0660F771F881F991F6D
:100D20004A95D1F70895CF92DF92EF92FF92CF9339
:100D3000DF936B017C010E947006EB01C114D104AA
:100D4000E104F10489F00E949C080E9470066C1B6B
:100D50007D0B683E734090F381E0C81AD108E1082A
:100D6000F108C851DC4FEACFDF91CF91FF90EF90AF
:100D7000DF90CF900895789484B5826084BD84B567
:100D8000816084BD85B5826085BD85B5816085BD86
:100D9000EEE6F0E0808181608083E1E8F0E010829F
:100DA000808182608083808181608083E0E8F0E0E0
:100DB000808181608083E1EBF0E0808184608083CA
:100DC000E0EBF0E0808181608083EAE7F0E0808101
:100DD0008460808380818260808380818160808361
:100DE0008081806880831092C1000895833081F0F3
:100DF00028F4813099F08230A1F008958730A9F06D
:100E00008830B9F08430D1F4809180008F7D03C0A8
:100E1000809180008F7780938000089584B58F77CC
:100E200002C084B58F7D84BD08958091B0008F7716
:100E300003C08091B0008F7D8093B0000895CF9360
:100E4000DF9390E0FC01ED57FF4F2491FC01E95640
:100E5000FF4F8491882349F190E0880F991FFC018E
:100E6000E154FF4FA591B4918B549F4FFC01C59164
:100E7000D4919FB7611108C0F8948C91209582237A
:100E80008C93888182230AC0623051F4F8948C914B
:100E9000322F309583238C938881822B888304C0E2
:100EA000F8948C91822B8C939FBFDF91CF91089502
:100EB0000F931F93CF93DF931F92CDB7DEB7282FE9
:100EC00030E0F901E159FF4F8491F901ED57FF4FEF
:100ED0001491F901E956FF4F04910023C9F08823CA
:100EE00021F069830E94F6066981E02FF0E0EE0FA1
:100EF000FF1FEB54FF4FA591B4919FB7F8948C91CD
:100F0000611103C01095812301C0812B8C939FBF79
:100F10000F90DF91CF911F910F910895CF92DF92A3
:100F2000EF92FF920F931F93CF93DF937C016A019F
:100F3000EB0100E010E00C151D0571F06991D7017F
:100F4000ED91FC910190F081E02DC7010995892B6D
:100F500019F00F5F1F4FEFCFC801DF91CF911F91A5
:100F60000F91FF90EF90DF90CF900895611571057C
:100F700081F0DB010D900020E9F7AD0141505109EE
:100F8000461B570BDC01ED91FC910280F381E02DB3
:100F9000099480E090E0089563E271E00C94B60754
:100FA0000F931F93CF93DF93EC010E94B6078C0140
:100FB000CE010E94CC07800F911FDF91CF911F912E
:100FC0000F9108950F931F93CF93DF93EC010E942D
:100FD0006406688779878A879B87E881F98106801C
:100FE000F781E02DCE01099597FF15C00E94640698
:100FF000088519852A853B85601B710B820B930B35
:101000000C811D812E813F81601771078207930734
:1010100020F38FEF9FEFDF91CF911F910F910895F4
:10102000AF92BF92CF92DF92EF92FF920F931F93F6
:10103000CF93DF936C01790121153105B9F08A0155
:10104000C0E0D0E0A62EBB24A7FCB094C6010E944D
:10105000E20797FD0EC08A159B0559F0F8018193B0
:101060008F012196CE15DF0589F703C080E090E05F
:1010700001C0CE01DF91CF911F910F91FF90EF90B2
:10108000DF90CF90BF90AF9008954F925F926F9294
:101090007F92AF92BF92CF92DF92EF92FF920F9327
:1010A0001F93CF93DF93CDB7DEB729013A01621BBF
:1010B000730B840B950B29893A894B895C892A1912
:1010C0003B094C095D09298B3A8B4B8B5C8B9B014F
:1010D000AC0169897A898B899C890E942F09E4185F
:1010E000F50806091709A80197010E9481092A0D30
:1010F0003B1D4C1D5D1DCA01B901DF91CF911F91B0
:101100000F91FF90EF90DF90CF90BF90AF907F90C6
:101110006F905F904F90089508950E94BB060E94C3
:101120008C080E94EE00C0E0D0E00E941E012097D3
:10113000E1F30E940000F9CF089570D088F09F5726
:1011400090F0B92F9927B751A0F0D1F0660F771F13
:10115000881F991F1AF0BA95C9F712C0B13081F0F3
:1011600077D0B1E0089574C0672F782F8827B85FD3
:1011700039F0B93FCCF3869577956795B395D9F754
:101180003EF490958095709561957F4F8F4F9F4F5E
:101190000895E89409C097FB3EF49095809570956A
:1011A00061957F4F8F4F9F4F9923A9F0F92F96E9B3
:1011B000BB279395F695879577956795B795F11128
:1011C000F8CFFAF4BB0F11F460FF1BC06F5F7F4FC5
:1011D0008F4F9F4F16C0882311F096E911C07723D7
:1011E00021F09EE8872F762F05C0662371F096E8E0
:1011F000862F70E060E02AF09A95660F771F881FAF
:10120000DAF7880F9695879597F9089557FD9058C6
:10121000440F551F59F05F3F71F04795880F97FBBA
:10122000991F61F09F3F79F0879508951216130674
:101230001406551FF2CF4695F1DF08C016161706A3
:101240001806991FF1CF86957105610508940895D8
:10125000E894BB2766277727CB0197F90895DB0130
:101260008F939F930E94A009BF91AF91A29F800D81
:10127000911DA39F900DB29F900D11240895991B6D
:1012800079E004C0991F961708F0961B881F7A957D
:10129000C9F78095089597FB072E16F4009407D0A0
:1012A00077FD09D00E94AB0907FC05D03EF490956C
:1012B00081959F4F0895709561957F4F0895A1E2A4
:1012C0001A2EAA1BBB1BFD010DC0AA1FBB1FEE1FC0
:1012D000FF1FA217B307E407F50720F0A21BB30B0B
:1012E000E40BF50B661F771F881F991F1A9469F787
:1012F00060957095809590959B01AC01BD01CF01E3
:101300000895052E97FB1EF400940E94980957FD3E
:1013100007D00E945F0907FC03D04EF40C94980993
:1013200050954095309521953F4F4F4F5F4F089511
:1013300090958095709561957F4F8F4F9F4F089541
:101340000E94C509A59F900DB49F900DA49F800D8C
:10135000911D11240895AA1BBB1B51E107C0AA1FB0
:10136000BB1FA617B70710F0A61BB70B881F991F46
:101370005A95A9F780959095BC01CD010895EE0F7F
:10138000FF1F0590F491E02D0994A29FB001B39F37
:10139000C001A39F700D811D1124911DB29F700D7E
:1013A000811D1124911D0895FC0188279927E89437
:1013B00021912032E9F3293010F02E30C8F32B327E
:1013C00041F02D3239F4689404C00E94140A820F4F
:1013D000911D219120532A30C0F31EF490958195E0
:1013E0009F4F0895FC0105900020E9F780959095A6
:1013F0008E0F9F1F0895FB01DC014150504030F0DB
:101400008D910590801919F40020B9F7881B990B6C
:101410000895FC018191861721F08823D9F7992737
:1014200008953197CF0108957AE0979F902D879F77
:10143000802D910D1124089510E0CCECD0E004C073
:10144000FE010E94C1092296CE3CD107C9F7F8944B
:02145000FFCFCC
:101452000000C4048000010000004552524F522196
:1014620021210000000000B7038E07230496030920
:10147200043B040D0A006E616E00696E66006F76B1
:0414820066002E00D2
:00000001FF
