:100000000C9467000C948F000C948F000C945A048D
:100010000C945A040C945A040C948F000C948F0086
:100020000C948F000C948F000C948F000C9473012F
:100030000C948F000C948F000C948F000C948F0004
:100040000C94EB050C948F000C948F000C948F0093
:100050000C948F000C948F000C948F000C948F00E4
:100060000C948F000C948F00446973743A20000044
:100070000000080002010000030407000000000067
:100080000000000102040810204080010204081052
:1000900020010204081020040404040404040402DF
:1000A0000202020202030303030303000000002311
:1000B000002600290000000000250028002B000079
:1000C000000000240027002A00000401160111246A
:1000D0001FBECFEFD8E0DEBFCDBF11E0A0E0B1E0A2
:1000E000E0EDF2E102C005900D92A433B107D9F71B
:1000F00023E0A4E3B1E001C01D92A835B207E1F707
:1001000010E0CCECD0E004C02297FE010E94000970
:10011000CA3CD107C9F70E945E080C945B090C9495
:1001200000000F931F93CF93DF9300D0CDB7DEB7BE
:100130008C01CB0169837A830E943109AC0169810A
:100140007A81C8010E943A0921E030E0892B11F040
:1001500020E030E0C9010F900F90DF91CF911F9107
:100160000F910895CF93DF93CDB7DEB7C054D10977
:100170000FB6F894DEBF0FBECDBF20E430E0AE0175
:100180004F5F5F4F6AE089E391E00E94E10721E061
:1001900030E02C0F3D1F820F931FFC01108268E698
:1001A00070E0C9010E949100892B39F36CE270E084
:1001B000CE0101960E9448090097F9F2FC011082D5
:1001C000CE0107960E941309C05CDF4F0FB6F8946A
:1001D000DEBF0FBECDBFDF91CF91089540E052EC5E
:1001E00061E070E089E391E00E945D0540E855E23E
:1001F00060E070E088E591E00E945D0569E070E0F4
:1002000086E391E00C94C90220E043E062E088E5D7
:1002100091E00E942D0520E045E064E089E391E053
:100220000E942D0586E391E00C942F0289E391E072
:100230000E94D40488E591E00C94D404CF93DF931A
:100240001092E4021092E3021092350110923401F0
:100250006091340170913501653B7105ACF586E321
:1002600091E00E9402036FE070E080E090E00E9465
:1002700064060E94B2002091E3023091E402253B23
:10028000310594F49093E2028093E102F901EE0FBC
:10029000FF1FE958FE4F918380832F5F3F4F3093BC
:1002A000E4022093E30206C06AE071E088E591E091
:1002B0000E94A1078091340190913501019690939D
:1002C000350180933401C4CFC7E7D1E0688122961D
:1002D00088E591E00E94880382E0C13ED807B1F72B
:1002E000DF91CF9108951F920F920FB60F921124B4
:1002F0002F933F934F935F936F937F938F939F932E
:10030000AF93BF93EF93FF938091E60287FF05C001
:1003100010928500109284001AC02091E6023327C3
:1003200027FD30958091E50290E0281739077CF48D
:100330008091E602992787FD9095FC01EE0FFF1F43
:10034000E80FF91FE951FD4F808186FD15C08091AE
:10035000E6028F5F8093E6022091E602332727FDB5
:1003600030958091E50290E028173907BCF4809120
:10037000E6028C305CF112C08091E602992787FD7D
:100380009095FC01EE0FFF1FE80FF91FE951FD4F9B
:10039000808160E08F730E942907D9CF809184000B
:1003A00090918500049680349C4918F480E49CE97F
:1003B00005C08091840090918500049690938900F7
:1003C000809388008FEF8093E60238C020918400EC
:1003D000309185008091E602992787FD9095FC0178
:1003E000EE0FFF1FE80FF91FE951FD4F8181928148
:1003F000820F931F90938900809388008091E6027A
:10040000992787FD9095FC01EE0FFF1FE80FF91F5C
:10041000E951FD4F808186FF11C08091E602992746
:1004200087FD9095FC01EE0FFF1FE80FF91FE951C2
:10043000FD4F808161E08F730E942907FF91EF914A
:10044000BF91AF919F918F917F916F915F914F91EC
:100450003F912F910F900FBE0F901F9018952091F4
:10046000E5022C30A0F431E0320F3093E502FC01BC
:100470002083822F90E0FC01EE0FFF1FE80FF91F91
:10048000E951FD4F88EB9BE09283818308952FEF24
:10049000FC0120830895DF92EF92FF920F931F9348
:1004A000CF93DF93EC01D62E7A01890188818C30BD
:1004B00008F066C061E08D2D0E94F0068881A82FAB
:1004C000B0E0FD01EE0FFF1FEA0FFB1FE951FD4FEA
:1004D0002D2D2F739081907C922B908360E272E09F
:1004E0006E197F0977FF02C06D5F7F4F7595679525
:1004F00075956795698340E659E0401B510B57FF9E
:1005000002C04D5F5F4F55954795559547954A8376
:100510006CE00E947E089CE0899FB001112420E0DD
:1005200030E0A901460F571FFA01EE0FFF1FE40F3D
:10053000F51FE951FD4F908196FD16C02F5F3F4F8B
:100540002C30310571F781110FC01092800082E0CC
:10055000809381001092850010928400B19A80915E
:100560006F00826080936F00888190E0FC01EE0F45
:10057000FF1FE80FF91FE951FD4F808180648083E0
:100580008881DF91CF911F910F91FF90EF90DF90C5
:10059000089520E639E040E252E00C944B02FC0161
:1005A00080818C3070F5918128E830E0291B310979
:1005B00097FD3395220F331F220F331F62177307E6
:1005C0007CF0928128E532E0291B310997FD3395B3
:1005D000220F331F220F331F621773070CF49B0186
:1005E00022503109220F331F4FB7F89490E0FC01DD
:1005F000EE0FFF1FE80FF91FE951FD4F32832183F2
:100600004FBF08954F925F926F927F92AF92BF92C9
:10061000CF92DF92EF92FF920F931F93CF93DF93CE
:10062000EC01603282E078070CF040C077FD06C034
:10063000653B71052CF064EB70E002C060E070E097
:10064000898128E830E0281B310987FD3395220F86
:10065000331F220F331F5901CC24B7FCC094DC2C6C
:10066000882777FD8095982F2A8148E552E0421B24
:10067000510927FD5395440F551F440F551F2A015B
:10068000662457FC6094762C7F926F925F924F9213
:1006900014EBE12EF12C00E010E020E030E0A901A5
:1006A0000E9416080F900F900F900F90CE01DF91CF
:1006B000CF911F910F91FF90EF90DF90CF90BF905F
:1006C000AF907F906F905F904F900C94CF022091ED
:1006D0004D0330914E0328173907B9F490910B035D
:1006E00080910C03981789F0E0910B03F0E0E35F31
:1006F000FC4F808120910B0330E02F5F3F4F2F7321
:10070000332720930B0390E008958FEF9FEF089518
:100710001F93CF93DF93DC015C968D919C915D9745
:10072000009749F481E090E013969C938E93129782
:1007300080E090E03BC05196ED91FC91529750962D
:100740002C915097322F30951FB75E964C915E9743
:1007500041FB772770F941FD6095F894408177233C
:1007600011F0422B01C043234083EC012197F1F7A4
:1007700048E0508160FF02C0522B01C053235083D8
:10078000EC012197F1F76695415099F78081772325
:1007900011F0832301C0822B80831FBF5C968D9153
:1007A0009C915D970197F1F781E090E0DF91CF9107
:1007B0001F91089520914D0330914E03281739075A
:1007C00081F490910B0380910C03981751F0E09104
:1007D0000B03F0E0E35FFC4F8081992787FD909544
:1007E00008958FEF9FEF089520914D0330914E03B0
:1007F0002817390771F480910C0320910B0390E0C6
:10080000805C9F4F821B910960E470E00E948A081F
:10081000089580E090E0089520914D0330914E03BB
:100820002817390739F48FB7F89410920C031092F7
:100830000B038FBF0895E0914D03F0914E03E8172D
:10084000F90769F4A389B4899C91858980958923E6
:100850008C9310924E0310924D0381E0089580E036
:100860000895CF93DF93EC018A8D9B8D892BF1F056
:1008700080914D0390914E038C179D07B9F000971E
:1008800011F00E941B048E8D8E7F8E8F10920C03B0
:1008900010920B03D0934E03C0934D03EB89FC8958
:1008A00080819D89892B808381E001C080E0DF9178
:1008B000CF9108951F920F920FB60F9211242F938C
:1008C0003F934F935F936F937F938F939F93AF93D8
:1008D000BF93EF93FF93E0914D03F0914E03309758
:1008E00009F451C0868DA685B785958581FF04C022
:1008F0008C91892329F447C08C91892309F043C046
:10090000A389B4899C918589809589238C93868954
:1009100097890197F1F7208D318DA685B78575856B
:1009200058E040E0C9010197F1F7842F90E09595D8
:100930008795482F6C91672309F04068515091F7D3
:10094000868D81FD409580910C0390E001968F7318
:10095000992720910B03281749F0A0910C03B0E0D0
:10096000A35FBC4F4C9380930C0303C0868D8160C2
:10097000868F828D938D0197F1F7A389B4898C912D
:100980009589892B8C93FF91EF91BF91AF919F91A6
:100990008F917F916F915F914F913F912F910F9028
:1009A0000FBE0F901F90189527E131E0FC013183B5
:1009B00020830C941B041F93CF93DF93EC01162F1D
:1009C0006E8D6695617081E06827812F0E942907EE
:1009D00061E0812F0E94F006812F90E0FC01ED572D
:1009E000FF4FE491E88BFC01E956FF4FE491F0E002
:1009F000EE0FFF1FEB54FF4F859194919A8B898BDB
:100A0000DF91CF911F9108951F93CF93DF93EC0156
:100A1000162F60E0812F0E94F0068E8D81FD04C0AC
:100A200061E0812F0E9429071C87812F90E0FC0143
:100A3000ED57FF4FE491ED87FC01E956FF4FE4913C
:100A4000F0E0EE0FFF1FE555FF4F859194919F87D2
:100A50008E87DF91CF911F910895FF920F931F937F
:100A6000CF93DF93EC01F62E522F1B821A8208EEF1
:100A700013E020E030E00C831D832E833F8387E169
:100A800091E0998388831F8A1E8A198E188E1B8E87
:100A90001A8E1D8E1C8E8E8D8E7F50FB81F98E8F4F
:100AA000642FCE010E94DB046F2DCE01DF91CF9128
:100AB0001F910F91FF900C940405CF93DF93EC01ED
:100AC0009A01AB011B8E1A8E198E188E1F8A1E8AF0
:100AD00060E079E08DE390E00E94C008C901243015
:100AE000310520F0B9016350710902C061E070E086
:100AF0007D8F6C8FEC85E63108F068C0B901769582
:100B000067956431710518F06351710902C061E0A5
:100B100070E07F8B6E8B069718F0C901059702C0B5
:100B200081E090E0998F888FC901880F991F820F0B
:100B3000931F96958795969587958D30910510F022
:100B40000C9702C081E090E09B8F8A8F2091680013
:100B5000E83050F091E0EE3008F490E081E001C020
:100B6000880F9A95EAF701C084E0822B8093680091
:100B70002C85283038F02E3040F0263148F48CE6B1
:100B800090E008C08DE690E005C08BE690E002C0E2
:100B900080E090E09C8B8B8B283030F481E001C0AA
:100BA000880F2A95EAF70DC0822F90E02E3010F4BE
:100BB000089701C00E9791E001C0990F8A95EAF756
:100BC000892F8D8B8C8D9D8D0197F1F7CE01DF9153
:100BD000CF910C9431041F920F920FB60F921124F3
:100BE0002F933F938F939F93AF93BF938091500325
:100BF00090915103A0915203B091530330914F0350
:100C000023E0230F2D3720F40196A11DB11D05C04F
:100C100026E8230F0296A11DB11D20934F03809358
:100C2000500390935103A0935203B09353038091C8
:100C3000540390915503A0915603B0915703019628
:100C4000A11DB11D8093540390935503A0935603A7
:100C5000B0935703BF91AF919F918F913F912F9187
:100C60000F900FBE0F901F9018952FB7F8946091BA
:100C700050037091510380915203909153032FBF01
:100C800008953FB7F8948091540390915503A09133
:100C90005603B091570326B5A89B05C02F3F19F006
:100CA0000196A11DB11D3FBF6627782F892F9A2F6E
:100CB000620F711D811D911D42E0660F771F881F15
:100CC000991F4A95D1F70895CF92DF92EF92FF9244
:100CD000CF93DF936B017C010E944106EB01C114AD
:100CE000D104E104F10489F00E946D080E944106DC
:100CF0006C1B7D0B683E734090F381E0C81AD108ED
:100D0000E108F108C851DC4FEACFDF91CF91FF90A5
:100D1000EF90DF90CF900895789484B5826084BD81
:100D200084B5816084BD85B5826085BD85B58160EF
:100D300085BDEEE6F0E0808181608083E1E8F0E04F
:100D40001082808182608083808181608083E0E87E
:100D5000F0E0808181608083E1EBF0E0808184605D
:100D60008083E0EBF0E0808181608083EAE7F0E05F
:100D700080818460808380818260808380818160C3
:100D800080838081806880831092C10008958330C1
:100D900081F028F4813099F08230A1F008958730F5
:100DA000A9F08830B9F08430D1F4809180008F7D33
:100DB00003C0809180008F7780938000089584B570
:100DC0008F7702C084B58F7D84BD08958091B00077
:100DD0008F7703C08091B0008F7D8093B00008951D
:100DE000CF93DF9390E0FC01ED57FF4F2491FC017E
:100DF000E956FF4F8491882349F190E0880F991FAD
:100E0000FC01E154FF4FA591B4918B549F4FFC011D
:100E1000C591D4919FB7611108C0F8948C91209529
:100E200082238C93888182230AC0623051F4F89423
:100E30008C91322F309583238C938881822B8883E9
:100E400004C0F8948C91822B8C939FBFDF91CF913B
:100E500008950F931F93CF93DF931F92CDB7DEB703
:100E6000282F30E0F901E159FF4F8491F901ED5746
:100E7000FF4F1491F901E956FF4F04910023C9F087
:100E8000882321F069830E94C7066981E02FF0E082
:100E9000EE0FFF1FEB54FF4FA591B4919FB7F8944D
:100EA0008C91611103C01095812301C0812B8C931B
:100EB0009FBF0F90DF91CF911F910F910895CF9217
:100EC000DF92EF92FF920F931F93CF93DF937C01FA
:100ED0006A01EB0100E010E00C151D0571F069914D
:100EE000D701ED91FC910190F081E02DC7010995AA
:100EF000892B19F00F5F1F4FEFCFC801DF91CF9102
:100F00001F910F91FF90EF90DF90CF9008956115A2
:100F1000710581F0DB010D900020E9F7AD01415032
:100F20005109461B570BDC01ED91FC910280F381C6
:100F3000E02D099480E090E0089563E271E00C9464
:100F400087070F931F93CF93DF93EC010E948707CE
:100F50008C01CE010E949D07800F911FDF91CF91E0
:100F60001F910F9108950F931F93CF93DF93EC017F
:100F70000E943506688779878A879B87E881F9818F
:100F80000680F781E02DCE01099597FF15C00E94DC
:100F90003506088519852A853B85601B710B820BF8
:100FA000930B0C811D812E813F8160177107820791
:100FB000930720F38FEF9FEFDF91CF911F910F9158
:100FC0000895AF92BF92CF92DF92EF92FF920F936C
:100FD0001F93CF93DF936C01790121153105B9F08F
:100FE0008A01C0E0D0E0A62EBB24A7FCB094C601C5
:100FF0000E94B30797FD0EC08A159B0559F0F801B2
:1010000081938F012196CE15DF0589F703C080E01B
:1010100090E001C0CE01DF91CF911F910F91FF9021
:10102000EF90DF90CF90BF90AF9008954F925F9276
:101030006F927F92AF92BF92CF92DF92EF92FF9228
:101040000F931F93CF93DF93CDB7DEB729013A01FA
:10105000621B730B840B950B29893A894B895C8938
:101060002A193B094C095D09298B3A8B4B8B5C8B08
:101070009B01AC0169897A898B899C890E946E08E1
:10108000E418F50806091709A80197010E94C0088D
:101090002A0D3B1D4C1D5D1DCA01B901DF91CF9189
:1010A0001F910F91FF90EF90DF90CF90BF90AF9086
:1010B0007F906F905F904F90089508950E948C06E6
:1010C0000E945D080E94EE00C0E0D0E00E941E0178
:1010D0002097E1F30E940000F9CF0895DB018F9380
:1010E0009F930E94DF08BF91AF91A29F800D911D39
:1010F000A39F900DB29F900D11240895991B79E044
:1011000004C0991F961708F0961B881F7A95C9F797
:101110008095089597FB072E16F4009407D077FD6D
:1011200009D00E94EA0807FC05D03EF4909581950D
:101130009F4F0895709561957F4F0895A1E21A2EF3
:10114000AA1BBB1BFD010DC0AA1FBB1FEE1FFF1F6B
:10115000A217B307E407F50720F0A21BB30BE40BBB
:10116000F50B661F771F881F991F1A9469F7609502
:101170007095809590959B01AC01BD01CF010895BC
:10118000052E97FB1EF400940E94D70857FD07D048
:101190000E949E0807FC03D04EF40C94D70850958B
:1011A0004095309521953F4F4F4F5F4F0895909553
:1011B0008095709561957F4F8F4F9F4F08950E9446
:1011C0000409A59F900DB49F900DA49F800D911DC3
:1011D00011240895AA1BBB1B51E107C0AA1FBB1F06
:1011E000A617B70710F0A61BB70B881F991F5A95B3
:1011F000A9F780959095BC01CD010895EE0FFF1FD2
:101200000590F491E02D0994A29FB001B39FC00115
:10121000A39F700D811D1124911DB29F700D811D22
:101220001124911D0895FC0188279927E8942191A4
:101230002032E9F3293010F02E30C8F32B3241F080
:101240002D3239F4689404C00E945309820F911D15
:10125000219120532A30C0F31EF4909581959F4F21
:101260000895FC0105900020E9F7809590958E0F78
:101270009F1F0895FB01DC014150504030F08D91DB
:101280000590801919F40020B9F7881B990B08956F
:10129000FC018191861721F08823D9F799270895B9
:1012A0003197CF0108957AE0979F902D879F802DE9
:1012B000910D1124089510E0CCECD0E004C0FE01A3
:1012C0000E9400092296CE3CD107C9F7F894FFCFBF
:1012D000000058038000010000004552524F522187
:1012E0002121000000000088035F07F4036703DA90
:1012F000030C040D0A006E616E00696E66006F7665
:0413000066002E0055
:107800000C94343C0C94513C0C94513C0C94513CE1
:107810000C94513C0C94513C0C94513C0C94513CB4
:107820000C94513C0C94513C0C94513C0C94513CA4
:107830000C94513C0C94513C0C94513C0C94513C94
:107840000C94513C0C94513C0C94513C0C94513C84
:107850000C94513C0C94513C0C94513C0C94513C74
:107860000C94513C0C94513C11241FBECFEFD8E036
:10787000DEBFCDBF11E0A0E0B1E0ECE9FFE702C060
:1078800005900D92A230B107D9F712E0A2E0B1E065
:1078900001C01D92AD30B107E1F70E942D3D0C945F
:1078A000CC3F0C94003C982F959595959595959582
:1078B000905D8F708A307CF0282F295A8091C0000B
:1078C00085FFFCCF9093C6008091C00085FFFCCF60
:1078D0002093C6000895282F205DF0CF982F809127
:1078E000C00085FFFCCF9093C6000895EF92FF92F1
:1078F0000F931F93EE24FF2487018091C00087FD22
:1079000017C00894E11CF11C011D111D81E4E8164B
:1079100082E4F8068FE0080780E0180770F3E09132
:107920000401F091050109958091C00087FFE9CF1E
:107930008091C6001F910F91FF90EF9008950E94D3
:10794000763C982F8091C00085FFFCCF9093C600B5
:1079500091362CF490330CF09053892F089597555D
:10796000892F08951F930E949F3C182F0E949F3CCF
:107970001295107F810F1F9108951F93182F882350
:1079800021F00E94763C1150E1F71F9108951F935A
:10799000182F0E94763C803249F0809103018F5F5E
:1079A000809303018530C1F01F9108958091C0003C
:1079B00085FFFCCF84E18093C6008091C00085FFE5
:1079C000FCCF1093C6008091C00085FFFCCF80E102
:1079D0008093C6001F910895E0910401F091050184
:1079E00009951F9108950E94763C803241F0809164
:1079F00003018F5F80930301853081F008958091AA
:107A0000C00085FFFCCF84E18093C6008091C00058
:107A100085FFFCCF80E18093C6000895E0910401CA
:107A2000F09105010995089540E951E08823A1F0FE
:107A30002D9A28EE33E0FA013197F1F721503040CA
:107A4000D1F72D9828EE33E0FA013197F1F7215064
:107A50003040D1F7815061F708953F924F925F9285
:107A60006F927F928F929F92AF92BF92CF92DF924E
:107A7000EF92FF920F931F93CF93DF93000080E16B
:107A80008093C4001092C50088E18093C10086E015
:107A90008093C2005098589A259A81E00E94143D24
:107AA00024E1F22E9EE1E92E85E9D82E0FE0C02ECA
:107AB00010E1B12EAA24A394B1E49B2EA6E58A2E50
:107AC000F2E57F2EE0E26E2E79E4572E63E5462E36
:107AD00050E5352E0E94763C8033B1F18133B9F107
:107AE000803409F46FC0813409F476C0823409F41B
:107AF00085C0853409F488C0803531F1823521F1A3
:107B0000813511F1853509F485C0863509F48DC0BC
:107B1000843609F496C0843709F403C1853709F423
:107B200072C1863709F466C0809103018F5F80932C
:107B30000301853079F6E0910401F0910501099582
:107B40000E94763C803351F60E94F33CC3CF0E94E2
:107B5000763C803249F78091C00085FFFCCFF092DF
:107B6000C6008091C00085FFFCCF9092C600809136
:107B7000C00085FFFCCF8092C6008091C00085FFC9
:107B8000FCCF7092C6008091C00085FFFCCF609250
:107B9000C6008091C00085FFFCCF5092C600809146
:107BA000C00085FFFCCF4092C6008091C00085FFD9
:107BB000FCCF3092C6008091C00085FFFCCFB09210
:107BC000C60088CF0E94763C863808F4BDCF0E945C
:107BD000763C0E94F33C7ECF0E94763C803809F4CC
:107BE0009CC0813809F40BC1823809F43CC1883942
:107BF00009F48FC080E00E94C73C6CCF84E10E94F2
:107C0000BD3C0E94F33C66CF85E00E94BD3C0E94D3
:107C1000F33C60CF0E94763C809306010E94763C44
:107C2000809307010E94F33C55CF0E94763C80333D
:107C300009F41DC183E00E94BD3C80E00E94C73C66
:107C400049CF0E94763C809309020E94763C809343
:107C5000080280910C028E7F80930C020E94763C79
:107C6000853409F415C18091080290910902892B8D
:107C700089F000E010E00E94763CF801E85FFE4FDA
:107C800080830F5F1F4F80910802909109020817AF
:107C9000190788F30E94763C803209F045CF809125
:107CA0000C0280FF01C16091060170910701660F0F
:107CB000771F7093070160930601A0910802B091AD
:107CC00009021097C9F0E8E0F1E09B01AD014E0F09
:107CD0005F1FF999FECF32BD21BD819180BDFA9A17
:107CE000F99A2F5F3F4FE417F50799F76A0F7B1F4B
:107CF00070930701609306018091C00085FFFCCF5F
:107D0000F092C6008091C00085FFFCCFB092C60003
:107D1000E1CE83E00E94C73CDDCE82E00E94C73CFA
:107D2000D9CE0E94763C809309020E94763C8093D3
:107D300008028091060190910701880F991F909386
:107D40000701809306010E94763C853409F4A6C0A1
:107D500080910C028E7F80930C020E94763C8032D0
:107D600009F0B8CE8091C00085FFFCCFF092C6002C
:107D7000609108027091090261157105B9F140E046
:107D800050E080910C02A82FA170B82FB27011C0E2
:107D9000BB2309F45CC0E0910601F0910701319624
:107DA000F0930701E09306014F5F5F4F46175707B7
:107DB000E8F4AA2369F3F999FECF209106013091E6
:107DC000070132BD21BDF89A90B58091C00085FFB2
:107DD000FCCF9093C6002F5F3F4F30930701209355
:107DE00006014F5F5F4F4617570718F38091C00099
:107DF00085FDE5CE8091C00085FFF8CFE0CE81E023
:107E00000E94C73C67CE0E94763C803209F08CCE3F
:107E10008091C00085FFFCCFF092C6008091C00029
:107E200085FFFCCFE092C6008091C00085FFFCCFAB
:107E3000D092C6008091C00085FFFCCFC092C600E2
:107E40008091C00085FFFCCFB092C60043CEE09188
:107E50000601F091070194918091C00085FFFCCF4D
:107E60009093C6009CCF80E10E94C73C33CE0E9415
:107E7000763C0E94763C182F0E94763C112309F430
:107E800083C0113009F484C08FE00E94C73C22CE29
:107E900080910C02816080930C02E5CE80910C02EF
:107EA000816080930C0259CF809107018823880F4D
:107EB000880B8A2180930B02809106019091070123
:107EC000880F991F90930701809306018091080203
:107ED00080FF09C080910802909109020196909359
:107EE000090280930802F894F999FECF1127E091D6
:107EF0000601F0910701C8E0D1E08091080290915D
:107F00000902103091F40091570001700130D9F34B
:107F100003E000935700E89500915700017001308D
:107F2000D9F301E100935700E89509901990009169
:107F3000570001700130D9F301E000935700E89534
:107F40001395103498F011270091570001700130FB
:107F5000D9F305E000935700E895009157000170B0
:107F60000130D9F301E100935700E895329602976A
:107F700009F0C7CF103011F00296E5CF112480919F
:107F8000C00085FFB9CEBCCE8EE10E94C73CA2CD19
:0C7F900085E90E94C73C9ECDF894FFCF0D
:027F9C00800063
:040000030000780081
:00000001FF
